:100000000C9434000C9446000C9446000C9446006A
:100010000C9446000C9446000C9446000C94460048
:100020000C9446000C9446000C9446000C945D0021
:100030000C9446000C9446000C9446000C94460028
:100040000C9446000C9446000C9446000C94460018
:100050000C9446000C9446000C9446000C94460008
:100060000C9446000C94460011241FBECFEFD8E03C
:10007000DEBFCDBF21E0A0E0B1E001C01D92A13004
:10008000B207E1F70E9463000C943A010C9400005F
:10009000E1E8F0E0808188608083808185608083F2
:1000A00088E09DE39093890080938800EFE6F0E07C
:1000B000808182608083789408958F9381E080931B
:1000C00000018F9118958AB18C638AB984B18F63CE
:1000D00084B985B1807C85B98BB1837C8BB90E9452
:1000E000480080E090E023E030E042E050E0E5E0CE
:1000F000F0E067E070E0A1E0B0E0D82EDD0CDD0CB0
:10010000E22EEE0CEE0CF42EFF0CFF0C0E2F000F67
:10011000000F162F110F110FCA2ECC0CCC0CC5B12D
:10012000C07CC5B9289ACBB1C37CCBB9CBB1CD29A2
:10013000CBB9CFE9DFE02197F1F700C00000C5B1EE
:10014000C07CC5B9299ACBB1C37CCBB9CBB1CE2980
:10015000CBB9CFE9DFE02197F1F700C00000C5B1CE
:10016000C07CC5B92A9ACBB1C37CCBB9CBB1CF295E
:10017000CBB9CFE9DFE02197F1F700C00000C5B1AE
:10018000C07CC5B92B9ACBB1C37CCBB9CBB1C02B4A
:10019000CBB9CFE9DFE02197F1F700C00000C5B18E
:1001A000C07CC5B92C9ACBB1C37CCBB9CBB1C12B28
:1001B000CBB9CFE9DFE02197F1F700C00000C5B16E
:1001C000C07CC5B92D9ACBB1C37CCBB9CBB1CC29FE
:1001D000CBB9CFE9DFE02197F1F700C00000C09173
:1001E0000001C11509F49BCF1092000101968A30DD
:1001F000910551F52F5F3F4F80E090E026303105AB
:1002000019F54F5F5F4F80E090E020E030E04A302A
:100210005105D1F4319680E090E020E030E040E0FC
:1002200050E0E630F10581F46F5F7F4F6A30710571
:10023000C1F4119680E090E020E030E040E050E032
:10024000E0E0F0E060E070E0A230B10509F055CFE9
:100250006430710509F051CF60E070E0A0E0B0E0DB
:100260004CCF80E090E020E030E040E050E0E0E083
:08027000F0E0EACFF894FFCFA3
:00000001FF
